:040000003AEF0AF0D9
:08000800046ED8CF05F0E0CF33
:1000100006F00001E9CF0CF0EACF07F0E1CF08F0DD
:10002000E2CF09F0D9CF0AF0DACF0BF0F3CF12F01C
:10003000F4CF13F0FACF14F000C00EF001C00FF0AF
:1000400002C010F003C011F09DA02AEF00F09EB096
:1000500017EF04F00EC000F00FC001F010C002F066
:1000600011C003F00CC0E9FF07C0EAFF078E08C00B
:10007000E1FF09C0E2FF0AC0D9FF0BC0DAFF12C0DE
:10008000F3FF13C0F4FF14C0FAFF045006C0E0FFF2
:1000900005C0D8FF1000F2CF0DF0F29EAE0FF66E45
:1000A000000EF7220900F5500DBEF28E120000007E
:1000B000000000000003C00000000000000000007D
:1000C000000000000007E000000000000000000049
:1000D000000000000007E000000000000000000039
:1000E000000000000003E00000000000000000002D
:1000F000000000000007E000000000000000000019
:10010000000000000007E000000000000000000008
:10011000000000000003C00000000000000000001C
:1001200000000000000000000000000000000000CF
:1001300003F000000000000000000FC000000000FD
:1001400001FC00000001000000003F8000000000F2
:10015000007F00000FFFFFF00000FE000000000025
:10016000001FC003FFFFFFFF8003F8000000000036
:100170000007C01FFE00007FF803E0000000000041
:10018000000000FF80000001FF00000000000000F0
:10019000000003FC0003FC003FC000000000000062
:1001A00000000FE00007FFF007F000000000000073
:1001B00000003F800001FFFF01FC00000000000084
:1001C0000000FE000000007FC07F00000000000073
:1001D0000001F80000000007F01F80000000000090
:1001E0000003F00000000001FC0FC0000000000050
:1001F0000007E000000000007F07E00000000000B2
:10020000000FC000000000001F83F000000000008D
:10021000000F8000000000000FC1F000000000008F
:10022000001F00000000000007E0F80000000000D0
:10023000001F00000000000003E0F80000000000C4
:10024000003E00000000000003E07C00000001FF11
:10025000F03E00000000000001F07C0FFF8003FF73
:10026000F83E00000000000001F07C1FFFC000000D
:10027000003E00000000000000007C0000000000C4
:10028000003F0000000000000000FC000000000033
:10029000001F0000000000000000F8000000000047
:1002A000001F8000000000000001F80000000000B6
:1002B000000F8000000000000001F00000000000BE
:1002C0000007C000000000000003E0000000000084
:1002D0000003E000000000000007C0000000000074
:1002E0000001F00000000000000F8000000000008E
:1002F0000000FC0000000000003F000000000000C3
:1003000000007F000000000000FE00000000000070
:1003100000001FC00000000003F800000000000003
:10032000000007F0000000000FE0000000000000E7
:10033000000001FE000000007F80000000000000BF
:100340000003807FE0000007FE01C0000000000005
:10035000000FC007E0000007E003F000000000000D
:10036000003F8003E0000007C001FC000000000027
:1003700000FE0003E0000007C0007F000000000056
:1003800003F80003E0000007C0001FC000000000E9
:1003900001E00003E0000007C0000780000000004B
:1003A00000000003FFFFFFFFC0000000000000008E
:1003B00000000003FFFFFFFFC0000000000000007E
:1003C00000000001FFFFFFFF8000000000000000B0
:1003D000000000000000000000000000000000001D
:1003E000000000000000000000000000000000000D
:1003F00000000001FFFFFFFF800000000000000080
:1004000000000003FFFFFFFFC0000000000000002D
:1004100000000000FFFFFFFF0000000000000000E0
:1004200000000000000000000000000000000000CC
:1004300000000000000000000000000000000000BC
:1004400000000001FFFFFFFF80000000000000002F
:1004500000000001FFFFFFFF80000000000000001F
:10046000000000000000000000000000000000008C
:10047000000000000000000000000000000000007C
:10048000000000000000000000000000000000006C
:10049000000000001FFFFFF8000000000000000047
:1004A000000000000FFFFFF0000000000000F2CF8E
:1004B0000DF0F29EF76AC80FF66E040EF7220900DF
:1004C000F5500DBEF28E1200000000000000005F2B
:1004D00000000007000700147F147F14242A7F2ADD
:1004E000122313086462364956205000080703009F
:1004F000001C2241000041221C002A1C7F1C2A08EB
:10050000083E08080080703000080808080800004D
:1005100060600020100804023E5149453E00427FC1
:10052000400072494949462141494D331814127F10
:100530001027454545393C4A4949314121110907B0
:100540003649494936464949291E00001400000031
:100550004034000000081422411414141414004103
:1005600022140802015909063E415D594E7C1211C0
:10057000127C7F494949363E414141227F414141F8
:100580003E7F494949417F090909013E4141517373
:100590007F0808087F00417F41002040413F017FE4
:1005A000081422417F404040407F021C027F7F04AC
:1005B00008107F3E4141413E7F090909063E4151F5
:1005C000215E7F0919294600F2CF0DF0F29EF76AED
:1005D000E20FF66E050EF7220900F5500DBEF28E01
:1005E0001200264949493203017F01033F40404040
:1005F0003F1F2040201F3F4038403F6314081463D2
:1006000003047804036159494D43007F414141028D
:1006100004081020004141417F04020102044040CF
:10062000404040000307080020545478407F28448D
:1006300044383844444428384444287F3854545477
:100640001800087E090218A4A49C787F0804047886
:1006500000447D40002040403D007F1028440000C1
:10066000417F40007C047804787C08040478384496
:10067000444438FC1824241818242418FC7C08044A
:100680000408485454542404043F44243C4040206B
:100690007C1C2040201C3C4030403C442810284416
:1006A0004C9090907C4464544C44000836410000C7
:1006B0000077000000413608000201020402F2CF78
:1006C0000DF0F29EF76AD80FF66E060EF7220900BB
:1006D000F5500DBEF28E12004C616D70617261209A
:1006E00055560000F2CF0DF0F29EF76AFE0FF66E3F
:1006F000060EF7220900F5500DBEF28E1200506F63
:1007000072746174696C0000F2CF0DF0F29EF76AAA
:10071000220FF66E070EF7220900F5500DBEF28E7D
:1007200012004D6F646F0000F2CF0DF0F29EF76A79
:10073000420FF66E070EF7220900F5500DBEF28E3D
:10074000120054696D657200F2CF0DF0F29EF76AE7
:10075000620FF66E070EF7220900F5500DBEF28EFD
:1007600012004F4E2000F2CF0DF0F29EF76A800F7C
:10077000F66E070EF7220900F5500DBEF28E12003C
:100780004F464600F2CF0DF0F29EF76A9E0FF66ECE
:10079000070EF7220900F5500DBEF28E12005075BB
:1007A00073680000F2CF0DF0F29EF76ABE0FF66E8E
:1007B000070EF7220900F5500DBEF28E1200486FA9
:1007C0006C640000F2CF0DF0F29EF76ADE0FF66E59
:1007D000070EF7220900F5500DBEF28E1200566189
:1007E0006C6F7200F2CF0DF0F29EF76AFE0FF66E9C
:1007F000070EF7220900F5500DBEF28E1200416C73
:100800006D6163656E61646F0000F2CF0DF0F29E62
:10081000F76A240FF66E080EF7220900F5500DBE98
:10082000F28E120054494D45522055560000B10E2B
:10083000CF6EE00ECE6E04013C2BD8B43D2B9280DF
:1008400080B00BD03F51040807E303E13E51AF08ED
:1008500003E33E2BD8B43F2B02D03F6B3E6B92821A
:1008600080B209D0415306E14051770803E3402BA1
:10087000D8B4412B02D0416B406B928480B409D034
:10088000435306E14251770803E3422BD8B4432B8C
:1008900002D0436B426B928680B609D0455306E185
:1008A0004451770803E3442BD8B4452B02D0456B61
:1008B000446B3D5303E13C51C70816E23D6B3C6B72
:1008C00082B412D0335102080FE1365302E03607EA
:1008D0000BD0355304E035073B0E366F05D01B8631
:1008E00037C435F438C436F49E9000012AEF00F086
:1008F000040EEA6E520EE96EEF500DE0060E016E28
:10090000006A002EFED7012EFBD77B0E006E002E54
:10091000FED7EF2EF3D7000C080E016E00008B906F
:100920009490000004015E378B92D8B09482D8A0D6
:100930009492948082A0FED7012E01D002D00001B3
:10094000EDD700008B90949000009482000000008E
:10095000948082A0FED7016A000082B201808B9051
:1009600094908B9294920001000C04015D6B948230
:100970000000948000008B92949200008B909490E1
:1009800016C05EF40001C8DF5DC45EF4C5DF5CC460
:100990005EF4C2DF94920000948082A0FED7000033
:1009A00000D0000094820000000C51C417F052C423
:1009B00016F0AE0E04015C6F0001D7DFD50E040106
:1009C0005C6F0001D2DF800E04015C6F0001CDDF9F
:1009D000A80E04015C6F0001C8DF3F0E04015C6FCC
:1009E0000001C3DFD30E04015C6F0001BEDF040110
:1009F0005C6B0001BADF400E04015C6F0001B5DFE3
:100A00008D0E04015C6F0001B0DF0401512D06D092
:100A1000100E5C6F0001A9DF05D00401140E5C6F9D
:100A20000001A3DF200E04015C6F00019EDF0401C2
:100A30005C6B00019ADFA10E04015C6F000195DF81
:100A4000C80E04015C6F000190DFDA0E04015C6FD8
:100A500000018BDF120E04015C6F000186DF810E46
:100A600004015C6F000181DF0401512D06D09F0E4F
:100A70005C6F00017ADF05D00401CF0E5C6F0001CE
:100A800074DFD90E04015C6F00016FDF0401512D8A
:100A900006D0220E5C6F000168DF05D00401F10E64
:100AA0005C6F000162DFDB0E04015C6F00015DDF43
:100AB000400E04015C6F000158DFA40E04015C6F5E
:100AC000000153DFA60E04015C6F00014EDFAF0E84
:100AD00004015C6F000149DF000C040156517F08DE
:100AE00003E357513F0801E204D056C418F057C43D
:100AF00019F000012FEF08F00401565302E1010E36
:100B0000566F56C41AF0000132EF08F00401835307
:100B10000BE182517F0803E207D000B005D0855376
:100B200003E184513F0801E27DD086533BE08531EB
:100B3000886F8431876F88338733883387331F0EFC
:100B400088178735026E8835036E02360336023603
:100B500003360236033602360336023603360236D1
:100B60000336800E021602508225876F03508321C0
:100B7000886F1C0E8725E96E000E8821EA6E84516D
:100B8000070B006E036A0050036A010E026E0052EA
:100B900005E0D89002360336002EFBD70250EF1046
:100BA000EF6E40D08531886F8431876F883387330B
:100BB000883387331F0E88178735026E8835036E9A
:100BC0000236033602360336023603360236033661
:100BD0000236033602360336800E02160250822594
:100BE000876F03508321886F1C0E8725E96E000EE6
:100BF0008821EA6E8451070B006E036A0050036A75
:100C0000010E026E005205E0D89002360336002E27
:100C1000FBD70250006A0006001AFF0E031A0050AC
:100C2000EF14EF6E0001000C040174916D51715DC1
:100C3000826F6E517259836F036E825183AF08D0F9
:100C4000000ED8808255006E000E8355036E005052
:100C5000826F03C083F46B516F5D846F6C51705968
:100C6000856F036E845185AF08D0000ED8808455FF
:100C7000006E000E8555036E0050016E03AE03D06A
:100C800083AF0AD002D083BF08D00350835D05E351
:100C900003E18251015C01E2748174A118D06CC43B
:100CA0007BF46BC47AF46EC46CF46DC46BF47BC4D7
:100CB0006EF47AC46DF470C47DF46FC47CF472C4B5
:100CC00070F471C46FF47DC472F47CC471F470AFBD
:100CD00003D06CAF0AD002D06CBF1FD070516C5DD6
:100CE0001CE303E16B516F5D18E26CC47FF46BC4CD
:100CF0007EF470C46CF46FC46BF47FC470F47EC473
:100D00006FF46EC481F46DC480F472C46EF471C467
:100D10006DF481C472F480C471F46B516F5D006E28
:100D20006C51705900C076F46D51715D826F6E51D7
:100D30007259836F036E825183AF08D0000ED88042
:100D40008255006E000E8355036E0050776FD89069
:100D50007631036A786F03C079F46EAF03D072AF57
:100D60000AD002D072BF0AD06E51725D07E303E170
:100D700071516D5D03E2010E756F02D0FF0E756F4C
:100D80006CAF03D070AF0AD002D070BF58D06C5196
:100D9000705D55E303E16B516F5D51E374A11DD0AC
:100DA00073530EE06EC483F46DC482F46CC485F496
:100DB0006BC484F4010E866F0001A8DE0CD0040120
:100DC0006EC483F46DC482F46CC485F46BC484F483
:100DD000866B00019BDE1CD0040173530EE06CC4D3
:100DE00083F46BC482F46EC485F46DC484F4010E84
:100DF000866F00018BDE0CD004016CC483F46BC4DD
:100E000082F46EC485F46DC484F4866B00017EDECA
:100E100004017751785F000E795B79BF01D00BD068
:100E2000036A7551E8BE03066D2703506E237651A1
:100E30007827000E79236B2BD8B46C2BA1D7000137
:100E4000000C040168516725FF0F6A6F6C6B66C464
:100E50006BF46E6B67C46DF4706B66C46FF4726B89
:100E6000716F69C473F40001DFDE000C0401656B6F
:100E70005FC464F461515F25655311E1645D0FE265
:100E800064C466F460C467F462C468F463C469F45B
:100E90000001D7DF0401642BD8B4652BEBD7000128
:100EA000000C04015751200805E1185203E11BA072
:100EB00001D0CDD05751070804E1196A19C018F0C4
:100EC000C6D0575108080AE11A50060DF350185CB5
:100ED00005E31A50060DF350185EB9D057510D08AE
:100EE00002E1186AB4D057510A080CE11A50080DF3
:100EF000F35019261A50070DF3501924400801E247
:100F0000196AA5D057511F0803E257517E0802E223
:100F10003F0E576F596B5951040863E357515208FC
:100F200011E3200E575D050DF3505925036AF2CFEA
:100F30005CF4F29E000157EC02F004015CBFF28EFB
:100F40005B6F10D0530E575D050DF3505925036AA2
:100F5000F2CF5CF4F29E0001E4EC02F004015CBF0D
:100F6000F28E5B6F5A6B5A51060839E35BA102D0CF
:100F7000588101D058911A2C14D0595118245C6F03
:100F80005A5119245D6F000E58B1010E836B5CC479
:100F900082F4856B5DC484F4866F0001B7DD19D0DF
:100FA000040159511A02F35018245C6F5A511A0265
:100FB000F35019245D6F000E58B1010E5CC45FF44C
:100FC0005DC460F41AC061F41AC062F4636F00017A
:100FD0004DDF04015A515A2BD8905B33C4D7592B9B
:100FE0009AD71A50050DF35018245C6F1A50070D4C
:100FF000F3CF5DF45CC45FF419C060F41AC061F40F
:101000005DC462F4636B000131DF1A50060DF350CA
:1010100018261A50060DF350800F185C03E002E307
:10102000800E186E1BA012D01A50050DF350182414
:1010300080080CE2186A1A50080DF35019261A504D
:10104000070DF3501924400801E2196A0401000158
:1010500032EF08F051C456F452C457F43ED555C48B
:1010600056F44AD554C403F0040153C4E9FF54C4F0
:10107000EAFFEF5212E054C403F05351532BD8B49B
:10108000542BE96E03C0EAFFEFCF56F456C457F471
:10109000000107D70001E6D704010001000C04019C
:1010A0005C6B000162DC100E04015C6F00015DDC12
:1010B000400E04015C6F000158DC400E0401526FC9
:1010C000800E536F546B020E556F523352335233AE
:1010D0001F0E52175333533353335317576B566BFB
:1010E0005A6B586B5251585D58E2B00E5825542532
:1010F0005B6F5C6F000139DC040155510F0B5B6FB6
:101100005C6F000132DC04015539006E0F0E0016D1
:10111000005010095B6F5C6F000127DC0401596B04
:101120005951070838E394820000948000008B92A4
:10113000949200008B90949016C05EF400018CECA9
:1011400004F0400E04015E6F00018CEC04F0040119
:101150005A6B53515A5D13E21C0E5625E96E000E70
:101160005721EA6EEFCF5BF45BC45EF400018CECB8
:1011700004F00401562BD8B4572B5A2BEAD794927B
:101180000000948082A0FED7000000D0000094826E
:101190000000592BC5D7582BA5D70001000C04011E
:1011A000526B516B525103080BE31C0E5125E96E33
:1011B000000E5221EA6EEF6A512BD8B4522BF2D7AF
:1011C0000001000C0401515307E0A70E5C6F000101
:1011D000B5EC04F006D00401A60E5C6F0001B5EC7E
:1011E00004F0000C040152515403F3CF01F0F4CF8A
:1011F00000F05503F350002653515403F3500020E0
:10120000026E00011DEF09F00401512D52D0306B28
:1012100030513F084EE3316B31510F0848E3070E60
:10122000396F3951800A7F0840E2536B30C452F461
:10123000556B100E546F0001D5D702C053F401C096
:1012400052F4040131510124016E000E0220036E9C
:101250000150F2CF52F4F29E03C0F7FF00014BECB5
:1012600000F0040152BFF28E526F070ED88039553C
:10127000536F52C400F05351016E04E0D890003215
:10128000012EFCD700A00FD03151080DF3503925A5
:10129000526F836B826F856B30C484F4010E866F4E
:1012A000000134DC04013907BCD7312BB5D7302B12
:1012B000AFD70001F4DE16EF10F004015851016AB7
:1012C000575D03E257C400F00CD0006A080E596F56
:1012D000573700365851005CD8B0006E0136592F90
:1012E000F7D70001000C50C4EAFF4FC4E9FF040126
:1012F00057C4EFFFE92AD8B4EA2AEF6A4F2BD8B4D3
:10130000502B0001000C200E040152A9300E536F27
:1013100051C400F051AF07D0001E002A00C051F4A4
:101320002D0E536F528F015051C457F4640E586FF5
:101330000001C3DF00C051F4300E01240401546FDA
:1013400051C457F40A0E586F0001B7DF300E002465
:101350000401566F300E0124556F53C400F052A79C
:1013600002D052AF529552B90BD052AF22D052B5E3
:1013700020D000C054F452B31CD000C055F419D092
:10138000300E545D16E100C054F4200E536F52A786
:1013900004D05295528352AF5293300E555D09E1FD
:1013A00000C055F4200E546F52A7F7D7529352AF96
:1013B000529152A505D053C457F4000194DF0401A3
:1013C00052A305D054C457F400018DDF040152A18B
:1013D00004D055C457F4000186DF56C457F4000109
:1013E00082DF000C040158515625FF0F5A6F6C6BB9
:1013F00056C46BF46E6B57C46DF4706B6F6F726B89
:1014000057C471F459C473F400010EDC000C51C4CC
:1014100056F452C457F453C458F4010E0401596FE2
:101420000001E0DF040154515225FF0F556F51C4F4
:1014300056F4576F53C458F4010E596F0001D2DFB0
:1014400051C466F452C467F454C468F4010E040134
:10145000696F0001F6DC040153515125FF0F556FF0
:10146000666F52C467F454C468F4010E696F0001DA
:10147000E8DC000CF86AD09E078EEA6AE96A1B80F5
:101480001B921B941B961B981B9A0401306B316BAB
:10149000326B336B346B356B366B376B386B396B48
:1014A0003B6B3A6B3D6B3C6B3F6B3E6B416B406BF8
:1014B000436B426B456B446BC150C00B0F09C16E4F
:1014C000070EB46E1C6A1D6A1E6A1F6A206A216AB2
:1014D000226A236A246A256A266A276A286A296A90
:1014E0002A6A2B6A2C6A2D6A2E6A2F6A306A316A40
:1014F000326A336A346A356A366A376A386A396AF0
:101500003A6A3B6A3C6A3D6A3E6A3F6A406A416A9F
:10151000426A436A446A456A466A800E476EC00E54
:10152000486EE00E496E4A6E4B6E4C6E4D6E600E0C
:101530004E6E4F6A506E516E526E536E546E556EB3
:10154000566E576E586E596E5A6E5B6E5C6E5D6E5F
:101550005E6E5F6E0001606F616F626F636F646FDC
:10156000656F666F676F686FE00E696F6A6F6B6FAC
:101570006C6F6D6F6E6FC00E6F6F800E706F716BE2
:10158000726B736B746B756B766B776B786B796B57
:101590007A6B7B6B7C6B7D6B7E6B7F6B806B816B07
:1015A000826B836B846B856B866B876B886B896BB7
:1015B0008A6B8B6B8C6B8D6B8E6B8F6B906B916B67
:1015C000926B936B946B956B966B976B986B996B17
:1015D0009A6B9B6B9C6B9D6B9E6B9F6BA06BA16BC7
:1015E000A26BA36BA46BA56BA66BA76BA86BA96B77
:1015F000AA6BAB6BAC6BAD6BAE6BAF6BB06BB16B27
:10160000B26BB36BB46BB56BB66BB76BB86BB96BD6
:10161000BA6BBB6BBC6BBD6BBE6BBF6BC06BC16B86
:10162000C26BC36BC46BC56BF00EC66FFF0EC76F8A
:10163000C86FC96FCA6FCB6F3F0ECC6F030ECD6FF3
:10164000CE6BCF6BD06BD16BD26BD36BD46BD56BB6
:10165000D66BD76BD86BD96BDA6BDB6BDC6BDD6B66
:10166000DE6BDF6BE06BE16BE26BE36BE46BE56B16
:10167000800EE66FC00EE76FF00EE86FFF0EE96FA9
:10168000EA6FEB6FEC6FED6F7F0EEE6F0F0EEF6F8B
:10169000010EF06FF16BF26BF36BF46BF56BF66BA5
:1016A000F76BF86BF96BFA6BFB6BFC6BFD6BFE6B0E
:1016B000FF6B0101006B016B026B036B046B056B2D
:1016C000066B076B086B096B0A6B0B6B0C6B0D6B76
:1016D0000E6B0F6B106B116B126B136B146B156B26
:1016E000166B176B186B196B1A6B1B6B1C6B1D6BD6
:1016F0001E6B1F6B206B216B226B236B246B256B86
:10170000266B276B286B296B2A6B2B6B2C6B2D6B35
:101710002E6B2F6B306B316B326B336B346B356BE5
:10172000366B376B386B396B3A6B3B6B3C6B3D6B95
:101730003E6B3F6B406B416B426B436B446BFC0EEB
:10174000456FFF0E466F476F486F7F0E496F0F0E54
:101750004A6F010E4B6F4C6B4D6BE00E4E6FF80EE7
:101760004F6FFB0E506F1B0E516FE30E526FE00E6A
:10177000536FE30E546F630E556F566F576F586F6C
:10178000E30E596F5A6F5B6F5C6F830E5D6FC30E14
:101790005E6FE30E5F6F630E606F616F626F636F0A
:1017A000646FE30E656F666F676F630E686F830E1D
:1017B000696FF30E6A6FFB0E6B6F390E6C6FC10EA3
:1017C0006D6FE00E6E6F6F6F600E706F716F726F86
:1017D000736F746FE00E756F766F776F786B796FDC
:1017E000F80E7A6F7B6F780E7C6F600E7D6F7E6F68
:1017F0007F6F806FE00E816F826F836F846B856B6C
:10180000600E866F876F886F896F8A6F8B6F8C6FA2
:10181000E00E8D6F8E6FC00E8F6F906BF00E916F1C
:10182000F80E926F780E936F080E946F956B966B0F
:10183000976B986B996B9A6B9B6B9C6B9D6B9E6B7C
:101840009F6BA06BA16BA26B040EA36F1C0EA46F09
:10185000A56FA66FA76FA86FA96FAA6FAB6FAC6FCC
:10186000AD6FAE6FAF6FB06FB16FB26FB36F180E79
:10187000B46FB56FB66FB76FB86FB96FBA6FBB6F34
:10188000BC6FBD6FBE6FBF6FC06FC16FC26F1C0EEC
:10189000C36F1F0EC46FC56FC66F0F0EC76F030EE9
:1018A000C86FC96BCA6BCB6B100ECC6F1E0ECD6FA1
:1018B0001F0ECE6F070ECF6F180ED06F1F0ED16F99
:1018C000D26F070ED36FD46BD56BD66BD76B180E58
:1018D000D86F1F0ED96FDA6F070EDB6F180EDC6F33
:1018E0001F0EDD6FDE6F1B0EDF6F180EE06FE16FF6
:1018F000980EE26FF80EE36FE46F7F0EE56F1F0E38
:10190000E66F030EE76F1C0EE86F1F0EE96FEA6FBC
:10191000010EEB6F1E0EEC6F1F0EED6FEE6F190ECA
:10192000EF6F180EF06FF16FF26FF36F1E0EF46F22
:101930001F0EF56F0F0EF66F110EF76F1E0EF86F7C
:101940001F0EF96FFA6F180EFB6FFC6FFD6FFE6FC5
:10195000FF6F1E0E0201006F1F0E016F070E026F58
:10196000080E036F1E0E046F1F0E056F066F1B0E11
:10197000076F086F096F0A6F0B6F1F0E0C6F0D6FEB
:10198000070E0E6F180E0F6F1F0E106F116F030EE4
:10199000126F136B146B156B166B176B186B196B3F
:1019A0001A6B1B6B1C6B1D6B1E6B1F6B206B216BF3
:1019B000226B236B246B256B266B276B286B296BA3
:1019C0002A6B2B6B2C6B2D6B2E6B2F6B306B316B53
:1019D000326B336B346B356B366B376B386B396B03
:1019E0003A6B3B6B3C6B3D6B3E6B3F6B406B416BB3
:1019F000426B436B446B456B466B476B486B496B63
:101A00004A6B4B6B4C6B4D6B4E6B4F6B506B516B12
:101A1000526B536B546B556B566B576B586B596BC2
:101A20005A6B5B6B5C6B5D6B5E6B5F6B606B616B72
:101A3000626B636B646B656B666B676B686B696B22
:101A40006A6B6B6B6C6B6D6B6E6B6F6B706B716BD2
:101A5000726B736B746B756B766B776B786B796B82
:101A60007A6B7B6B7C6B7D6B7E6B7F6B806B816B32
:101A7000826B836B846B856B866B876B886B896BE2
:101A80008A6B8B6B8C6B8D6B8E6B8F6B906B916B92
:101A9000926B936B946B956B966B976B986B996B42
:101AA0009A6B9B6B9C6B9D6B9E6B9F6BA06BA16BF2
:101AB000A26BA36BA46BA56BA66BA76BA86BA96BA2
:101AC000AA6BAB6BAC6BAD6BAE6BAF6BB06BB16B52
:101AD000B26BB36BB46BB56BB66BB76BB86BB96B02
:101AE000BA6BBB6BBC6BBD6BBE6BBF6BC06BC16BB2
:101AF000C26BC36BC46BC56BC66BC76BC86BC96B62
:101B0000CA6BCB6BCC6BCD6BCE6BCF6BD06BD16B11
:101B1000D26BD36BD46BD56BD66BD76BD86BD96BC1
:101B2000DA6BDB6BDC6BDD6BDE6BDF6BE06BE16B71
:101B3000E26BE36BE46BE56BE66BE76BE86BE96B21
:101B4000EA6BEB6BEC6BED6BEE6BEF6BF06BF16BD1
:101B5000F26BF36BF46BF56BF66BF76BF86BF96B81
:101B6000FA6BFB6BFC6BFD6BFE6BFF6B0301006B99
:101B7000016B026B036B046B056B066B076B086BE9
:101B8000096B0A6B0B6B0C6B0D6B0E6B0F6B106B99
:101B9000116B126B136B146B156B166B176B186B49
:101BA000196B1A6B1B6B1C6B1D6B1E6B1F6B206BF9
:101BB000216B226B236B246B256B266B276B286BA9
:101BC000296B2A6B2B6B2C6B2D6B2E6B2F6B306B59
:101BD000316B326B336B346B356B366B376B386B09
:101BE000396B3A6B3B6B3C6B3D6B3E6B3F6B406BB9
:101BF000416B426B436B446B456B466B476B486B69
:101C0000496B4A6B4B6B4C6B4D6B4E6B4F6B506B18
:101C1000516B526B536B546B556B566B576B586BC8
:101C2000596B5A6B5B6B5C6B5D6B5E6B5F6B606B78
:101C3000616B626B636B646B656B666B676B686B28
:101C4000696B6A6B6B6B6C6B6D6B6E6B6F6B706BD8
:101C5000716B726B736B746B756B766B776B786B88
:101C6000796B7A6B7B6B7C6B7D6B7E6B7F6B806B38
:101C7000816B826B836B846B856B866B876B886BE8
:101C8000896B8A6B8B6B8C6B8D6B8E6B8F6B906B98
:101C9000916B926B936B946B956B966B976B986B48
:101CA000996B9A6B9B6B9C6B9D6B9E6B9F6BA06BF8
:101CB000A16BA26BA36BA46BA56BA66BA76BA86BA8
:101CC000A96BAA6BAB6BAC6BAD6BAE6BAF6BB06B58
:101CD000B16BB26BB36BB46BB56BB66BB76BB86B08
:101CE000B96BBA6BBB6BBC6BBD6BBE6BBF6BC06BB8
:101CF000C16BC26BC36BC46BC56BC66BC76BC86B68
:101D0000C96BCA6BCB6BCC6BCD6BCE6BCF6BD06B17
:101D1000D16BD26BD36BD46BD56BD66BD76BD86BC7
:101D2000D96BDA6BDB6BDC6BDD6BDE6BDF6BE06B77
:101D3000E16BE26BE36BE46BE56BE66BE76BE86B27
:101D4000E96BEA6BEB6BEC6BED6BEE6BEF6BF06BD7
:101D5000F16BF26BF36BF46BF56BF66BF76BF86B87
:101D6000F96BFA6BFB6BFC6BFD6BFE6BFF6B04019D
:101D7000006B016B026B036B046B056B066B076BEF
:101D8000086B096B0A6B0B6B0C6B0D6B0E6B0F6B9F
:101D9000106B116B126B136B146B156B166B176B4F
:101DA000186B196B1A6B1B6B4F6B506B8B84949475
:101DB0000F0E926E89989298899A929A8B9C949C15
:101DC0008B9E949E8A9093908A9293928A949394F5
:101DD0008A9693968A9893988A9A939A8A9C939CC7
:101DE0008A9E939E850ECD6E9D80C00EF212F2CF1C
:101DF00051F4F29EA96AA69CA69EA680A85051BF47
:101E0000F28E386F050E526F000178EC04F0F2CFBD
:101E100051F4F29E010EA96EA69CA69EA680A85023
:101E2000040151BFF28E376F050E526F000178EC3E
:101E300004F0040138513B081BE2386BA96AA86A18
:101E4000A69CA69EA684F250006EF29E0F01550E2F
:101E5000A76EAA0EA76EA682A6B2FED7A6940050C1
:101E6000F212050E0401526F000178EC04F0040137
:101E700037515A081EE2050E376F010EA96E050E86
:101E8000A86EA69CA69EA684F250006EF29E0F013C
:101E9000550EA76EAA0EA76EA682A6B2FED7A6946E
:101EA0000050F212050E0401526F000178EC04F0AC
:101EB000040138C436F437C435F4020E516F7A0E7B
:101EC000526F0001D5EC04F0040EEA6E1C0EE96EB0
:101ED000F2CF51F4F29E000E5FEC03F00A0009000D
:101EE000F550EE6E0009FBE1040151BFF28E140EB5
:101EF000516F280E526F040E546F1C0E536F010E5B
:101F0000556F00012AEC08F0040EEA6E1C0EE96E13
:101F1000F2CF51F4F29E000E72EC03F00A000900B9
:101F2000F550EE6E0009FBE1040151BFF28E1E0E6A
:101F3000516F320E526F040E546F1C0E536F010E10
:101F4000556F00012AEC08F04FEC08F0CFEC08F0D8
:101F50004FEC08F01B84010E0401326F020E336F48
:101F60000001CFEC08F04FEC08F0010E0401516FB6
:101F70000001E2EC08F0040EEA6E1C0EE96EF2CFEE
:101F800051F4F29E000E84EC03F00A000900F550B3
:101F9000EE6E0009FBE1040151BFF28E140E516F89
:101FA000526B040E546F1C0E536F030E556F0001DD
:101FB0002AEC08F0040EEA6E1C0EE96EF2CF51F422
:101FC000F29E000E94EC03F00A000900F550EE6E4C
:101FD0000009FBE1040151BFF28E1E0E516F526FDA
:101FE000040E546F1C0E536F030E556F00012AEC44
:101FF00008F04FEC08F0040E0401516FC80E526F48
:10200000000178EC04F00401512FF8D70001CFEC67
:1020100008F04FEC08F04FEC08F004013253D8A45C
:1020200077D2010E516F000104EF09F082B426D07F
:10203000010E0401516F0001E2EC08F0040EEA6E9B
:102040001C0EE96EF2CF51F4F29E000EA4EC03F0E8
:102050000A000900F550EE6E0009FBE1040151BFD2
:10206000F28E516B320E526F040E546F1C0E536F72
:10207000020E556F00012AEC08F024D00401516BC8
:102080000001E2EC08F0040EEA6E1C0EE96EF2CFDD
:1020900051F4F29E000EB3EC03F00A000900F55073
:1020A000EE6E0009FBE1040151BFF28E516B320E5E
:1020B000526F040E546F1C0E536F020E556F0001C9
:1020C0002AEC08F0928080B013D0928280B210D0B7
:1020D000320E0401526F000178EC04F0928080B05F
:1020E00007D0928280B204D00401332B1B940001EC
:1020F00004013351020801E2336B3353D8A48CD06E
:102100001BB45DD01B840001CFEC08F04FEC08F04D
:10211000010E0401516F0001E2EC08F0040EEA6EBA
:102120001C0EE96EF2CF51F4F29E000E84EC03F027
:102130000A000900F550EE6E0009FBE1040151BFF1
:10214000F28E140E516F526B040E546F1C0E536FAF
:10215000030E556F00012AEC08F0040EEA6E1C0E07
:10216000E96EF2CF51F4F29E000EC2EC03F00A00C9
:102170000900F550EE6E0009FBE1040151BFF28E3B
:102180001E0E516F526F040E546F1C0E536F030ED0
:10219000556F00012AEC08F04FEC08F0040E040122
:1021A000516FC80E526F000178EC04F00401512FFA
:1021B000F8D70001CFEC08F04FEC08F004014553CC
:1021C00003E14451130814E28B9494941BBA0FD08A
:1021D000640E526F000178EC04F0020E0401516F9E
:1021E0007A0E526F0001D5EC04F01B8A040113D063
:1021F0008B8494941BAA0FD0640E526F000178EC6C
:1022000004F0020E0401516F7A0E526F0001D5ECFA
:1022100004F01B9A04017BD1332D7AD01BB45DD01E
:102220001B840001CFEC08F04FEC08F0010E040114
:10223000516F0001E2EC08F0040EEA6E1C0EE96E2C
:10224000F2CF51F4F29E000E84EC03F00A00090074
:10225000F550EE6E0009FBE1040151BFF28E140E41
:10226000516F526B040E546F1C0E536F030E556F5B
:1022700000012AEC08F0040EEA6E1C0EE96EF2CFA3
:1022800051F4F29E000ED2EC03F00A000900F55062
:10229000EE6E0009FBE1040151BFF28E1E0E516F7C
:1022A000526F040E546F1C0E536F030E556F0001D6
:1022B0002AEC08F04FEC08F0040E0401516FC80E30
:1022C000526F000178EC04F00401512FF8D700019F
:1022D000CFEC08F04FEC08F00401455303E1445102
:1022E000130814E21BB211D094948B74640E526FD5
:1022F000000178EC04F0020E0401516F7A0E526F67
:102300000001D5EC04F01B82040101D01B92FFD028
:1023100033510208D8A4FBD01BB45DD01B8400014C
:10232000CFEC08F04FEC08F0010E0401516F0001F2
:10233000E2EC08F0040EEA6E1C0EE96EF2CF51F4E6
:10234000F29E000E84EC03F00A000900F550EE6ED8
:102350000009FBE1040151BFF28E140E516F526B64
:10236000040E546F1C0E536F030E556F00012AECC0
:1023700008F0040EEA6E1C0EE96EF2CF51F4F29EE4
:10238000000E94EC03F00A000900F550EE6E00090F
:10239000FBE1040151BFF28E1E0E516F526F040E0D
:1023A000546F1C0E536F030E556F00012AEC08F09A
:1023B0004FEC08F0040E0401516FC80E526F00017B
:1023C00078EC04F00401512FF8D70001CFEC08F0AD
:1023D0004FEC08F00401040E506F460E4F6F35C4E9
:1023E00051F4010E526F000183EC09F03A0E040122
:1023F000576F000173EC09F05C0E0401516F370E4A
:10240000526F040E546F460E536F010E556F00014C
:102410002AEC08F0040E0401506F460E4F6F36C4CC
:1024200051F4010E526F000183EC09F06E0E0401AD
:10243000516F370E526F040E546F460E536F010EDC
:10244000556F00012AEC08F082A424D004013F510A
:1024500000081FE2FF0A03E13E518F081AE2010E55
:10246000326F0001CFEC08F04FEC08F0010E0401D0
:10247000516F0001E2EC08F04FEC08F0040E04018B
:10248000516FC80E526F000178EC04F00401512F17
:10249000F8D700011BA602D08B8494940401455305
:1024A00003E14451130816E21BB614D01BB211D03D
:1024B00094948B74640E526F000178EC04F0020E59
:1024C0000401516F7A0E526F0001D5EC04F01B82AB
:1024D00004011DD0455303E14451130817E21BA624
:1024E00015D01BB212D01B968B949494640E526F2D
:1024F000000178EC04F0020E0401516F7A0E526F65
:102500000001D5EC04F01B82040101D01B9264D1C0
:10251000322D62D1928080B0A6D0928280B2A3D0B8
:10252000320E526F000178EC04F0928080B099D0A6
:10253000928280B296D00401326BA96A38C4A8FF97
:10254000A69CA69EA684F250006EF29E0F01550E28
:10255000A76EAA0EA76EA682A6B2FED7A6940050BA
:10256000F2120A0E0401526F000178EC04F0010E21
:10257000A96E37C4A8FFA69CA69EA684F250006E42
:10258000F29E0F01550EA76EAA0EA76EA682A6B2E6
:10259000FED7A6940050F2120A0E0401526F0001F9
:1025A00078EC04F038C436F437C435F4CFEC08F0D6
:1025B0004FEC08F0010E0401516F0001E2EC08F04D
:1025C000040EEA6E1C0EE96EF2CF51F4F29E000E7C
:1025D000E2EC03F00A000900F550EE6E0009FBE1A1
:1025E000040151BFF28E140E516F526B040E546FE2
:1025F0001C0E536F020E556F00012AEC08F0040EFA
:10260000EA6E1C0EE96EF2CF51F4F29E000EF2EC6F
:1026100003F00A000900F550EE6E0009FBE1040129
:1026200051BFF28E020E516F1E0E526F040E546F88
:102630001C0E536F020E556F00012AEC08F04FEC90
:1026400008F0040E0401516FC80E526F000178ECBF
:1026500004F00401512FF8D70001CFEC08F04FEC43
:1026600008F0BBD00401455303E1445113080BE2C9
:102670001BB208D01B780001CFEC08F04FEC08F03B
:102680001B82040101D01B92040EEA6E1C0EE96E3F
:10269000F2CF51F4F29E000E000105EC04F00A00A6
:1026A0000900F550EE6E0009FBE1040151BFF28E06
:1026B000140E516F526B040E546F1C0E536F020EAA
:1026C000556F00012AEC08F0040E0401506F460E0D
:1026D0004F6F37C451F4010E526F000183EC09F0C3
:1026E0003A0E0401576F000173EC09F0160E040155
:1026F000516F190E526F040E546F460E536F020E37
:10270000556F00012AEC08F0040E0401506F460ECC
:102710004F6F38C451F4010E526F000183EC09F081
:102720003C0E0401516F190E526F040E546F460E89
:10273000536F020E556F00012AEC08F01BA824D03D
:10274000370E0401516F140E526F200E536F190E85
:10275000546F000107EC0AF004013F5303E13E51BE
:102760003B0806E238513A0803E3382B416B406BD3
:10277000415303E140513B0805E2385303E0380779
:10278000416B406B24D00001110E0401516F140EF7
:10279000526F200E536F190E546F000107EC0AF0B0
:1027A00004013F5303E13E513B0806E2375159080B
:1027B00003E3372B416B406B415303E140513B082E
:1027C00006E23751010803E23707416B406B37518E
:0E27D0005A0802E2010E376F00011DD403000B
:020000040030CA
:0E0000001C0E191E000180000FC00FE00F4003
:00000001FF
;PIC18F2550
;CRC=1320  CREATED="03-feb.-21 13:27"
